:020000040000FA
:04000000C9EF05F04F
:08000800056ED8CF06F0E0CF31
:1000100007F00001E9CF0DF0EACF08F0E1CF09F0D9
:10002000E2CF0AF0D9CF0BF0DACF0CF0F3CF14F017
:10003000F4CF15F0FACF16F000C00FF001C010F0A9
:1000400002C011F003C012F004C013F0F2AA2CEFAA
:1000500000F0F2B45BEF00F09DA632EF00F09EB628
:1000600081EF00F0A3A438EF00F0A4B4ECEF00F0AF
:100070000FC000F010C001F011C002F012C003F078
:1000800013C004F00E8E0DC0E9FF08C0EAFF09C0DE
:10009000E1FF0AC0E2FF0BC0D9FF0CC0DAFF14C0B9
:1000A000F3FF15C0F4FF16C0FAFF055007C0E0FFCC
:1000B00006C0D8FF100024C0D7FF23C0D6FF010E12
:1000C000256E1F50D8B420061F061F5208E120528B
:1000D00006E122C020F021C01FF0010E266EF2942E
:1000E00038EF00F008C1C9FFC688C6AE04D0FF0EC5
:1000F000016E06D005D0C7B0FED7000E016E00D04D
:10010000000CC7BA03D0EC6BC9B0EC8FEC51EC2BF0
:10011000296E295208E12A6AC7A004D0C7A0FED7D9
:10012000C9CF30F056D0292C05D0C7A0FED7C9CFF3
:100130002FF04FD02950040815E3036A2A502B0FE3
:10014000E96E000E0320EA6EC7A0FED7C9CFEFFF0D
:100150002A2A036A2A502B0FE96E000E0320EA6E4A
:10016000EF6A37D0295005080EE1036A2A502B0F99
:10017000E96E000E0320EA6EC7A0FED7C9CFEFFFDD
:10018000010E276E26D0295080080AE1C7A004D0AE
:10019000C7A0FED7C9CF30F0010E286E2A6A19D049
:1001A0002950850816E32A5002080EE32A2A036A1A
:1001B0002A505124E96E52500320EA6EEFCF07F126
:1001C00007C108F18FDF05D0230E0101086F000180
:1001D00089DF9E9638EF00F0B6AA09D0010EC1273C
:1001E000D8B0C22BD8B4C32BD8B4C42B08D0FF0EC0
:1001F000C127D8A0C227D8A0C327D8A0C427A494B9
:1002000038EF00F0FF0E6B6E6E6A7F6A800E7E6EB6
:10021000400E6D6E7D6A7C6AF40E7B6E010E7A6E06
:10022000716A706A6E82796A786A6E926E82776A93
:10023000766A6E926E82756A746A6E926E82736A64
:10024000726A6E926A6AEDEF05F0B68EE30EB6142E
:100250000809B66EFC0EB614B66E0B0E656EB80EBF
:10026000646E609C608A60886086F80E6014606EC0
:10027000639CF00E63140F09636E676A666A696AAD
:10028000686AF1EF05F0800ED56ED76AD66AF3EF93
:1002900005F0FF6B0101006B010E016FDA6AD96A8C
:1002A000046BF70E036FEA6AFB0EE96E04C1E2FF0E
:1002B00003C1E1FF01C102F1D890E550EE02F35015
:1002C0000001FF23F45001010023022FF5D7FFC0E6
:1002D000DEFF00C1FFF0006BD8B0002B032BD8B4B9
:1002E000042B012B01510508DEE10001000CF75140
:1002F000D8B47DD0006EFB51D8B479D0002605E388
:10030000810E0026D8B073D004D07F0E005E6FE35C
:100310006EE0F8C0FFF0FC51FF1BF88FFC8FFA5124
:10032000FE03F4CF01F1F951FD03F4CF03F0F3CF55
:1003300000F1FE03F35001010127F4500023000EE9
:1003400003220001FA51FD03F35001010127F4508B
:100350000023000E026A032202220001F851FE036C
:10036000F35001010027F4500322000E0222000185
:10037000F851FD03F3500326F4500222000E016AE7
:100380000122FA51FC03F35001010027F45003222B
:10039000000E022201220001F951FC03F350032652
:1003A000F4500222000E0122F851FC03F350022601
:1003B000F4500122002A01BE06D0010100370336A5
:1003C000023601360006000E010100AF0AD0032AF2
:1003D00002220122015005E1025003E1035001E134
:1003E000002A0001FFBF018EFFAF019E04D0006A0A
:1003F000016A026A036A000CB60E006E036A026AA2
:10040000016AFB91FAAF0CD0FB81F71FF81FF91FAF
:10041000FA1FF72B05E1F82B03E1F92BD8B4FA2BDF
:10042000F751F811F911FA1102E1006A0FD0D890D2
:1004300001BE09D0F737F837F937FA3703360236F5
:100440000136002EF4D7019EFBB1018E000C800E08
:10045000D8B2FC1B0101016B026BF8C000F1000176
:10046000FC510101001B0001F751D8B4FED0FF6F11
:10047000006EFB51D8B403D1FF5FD8B49CD04BE3DE
:10048000FCC005F10101058FFDC004F1FEC003F1C0
:10049000026BD89005330433033302330001FF2F7E
:1004A00001D002D00101F4D7010100AF03D00181D6
:1004B000FBD001910001FF9101010189EA6AFA0E66
:1004C000E96E05D1019900BF0ED00001FFA116D041
:1004D00001010533043303330233002AD8B4DFD0DB
:1004E00000010CD0010105BF0DD0D89002370337B1
:1004F000043705370006D8B4D2D0F5D70101018DF5
:1005000080D0019DF8C000F100AF02D0058FC0D0AF
:10051000059FBED00001FBC0FFF0FBC000F0F7510B
:10052000FF5FF8C005F10101058FF9C004F1FAC0C1
:1005300003F1026BD8900533043303330233000117
:10054000FF2F01D002D00101F4D7010100AF03D089
:100550000183AAD001930001FF910101018BEA6A96
:10056000FE0EE96EB4D0019B00BF0ED00001FFA1CA
:1005700016D001010533043303330233002AD8B403
:100580008ED000010CD0010105BF0DD0D8900237EC
:100590000337043705370006D8B481D0F5D70101F9
:1005A000018F2FD0019FFCC000F100AF02D0058F5A
:1005B0006FD0059F6DD0FCC005F10101058FFDC016
:1005C00004F1FEC003F100AF04D0059F01856CD09B
:1005D0000195026B0001FF91EA6AFA0EE96E0101D2
:1005E00076D000BF20D0F8C000F10001FFB102D0EA
:1005F000010107D001010533043303330233002A1C
:100600004EE002AF0BD0032B09E1042B07E1052BD1
:1006100005E1053304330333002A41E001BD71D7FE
:1006200001BFC0D71CD0800E051B05AF04D03CD045
:10063000FCC000F10AD0F8C000F1055306E10453F4
:1006400004E1035302E1006A23D005BF08D0D8902B
:100650000237033704370537002EF7D720D000AF15
:1006600002D0058F15D0059F13D0FBC000F0FCC051
:1006700005F1FDC004F1FEC003F1010109D0F7C08E
:1006800000F0F8C005F1F9C004F1FAC003F101016E
:1006900005C101F004C102F003C103F03DD0006ABE
:1006A000016A026A036A38D0026B031F041F051F28
:1006B000021F022B05E1032B03E1042B01E1052BB3
:1006C00001B1F7D601B346D701B582D7B1D7EF5004
:1006D000032708E3042B06E1052BD8A403D000016F
:1006E000FF810101ED52EF50042706E3052BD8A44A
:1006F00003D00001FF810101ED52EF50EFBE01D0A8
:10070000800A0527D8A003D00001FF81010101B9AB
:10071000D9D601BB28D765D70001000CF751D8B452
:10072000E5D00101036F0001FB51D8B4DFD0010116
:10073000035F07E37F0E0327D8A002D00001D6D0C5
:100740000AD0810E035FD8B002D00001CFD0D8A468
:1007500002D00001CBD003C100F0016A026A036A33
:10076000026BF8C001F1018FF9C000F1FAC0FFF08F
:10077000190E036F0001FE51FF5F18E2010E010127
:10078000005FD8A002D0000111D0015FD8A002D034
:1007900000010CD0025FD8A002D0000107D0022BCC
:1007A000012B002B0001FE51FF273AD0FD51010122
:1007B000005F1DE2010E015F1AE2025F18E2022BE8
:1007C000012B0001FD51010100270001FE51FF270F
:1007D00027E30101002BD8B402D0000121D0012B66
:1007E000D8B402D000011CD0022B000119D00001A6
:1007F000FC5180090101015F12E2010E025F0FE26C
:10080000022B0001FC518009010101270001FD516B
:1008100001010027DAE3012BD8E1022BD6D70380B0
:100820000101032F01D00DD0D8900001FF37010145
:10083000003701370237D8900336023601360437C5
:1008400099D704A106D0D890013202320332043382
:1008500004D0002E02D0000149D004BF2CD0D89083
:100860000001FF3701010037013702370001FE5157
:10087000FF5F0FE2010E0101005FD8A002D000016E
:1008800008D0015FD8A002D0000103D0025F21E3AD
:100890000001FD510101005F05E2010E015F02E26E
:1008A000025F17E30001FC5180090101015F03E2CF
:1008B000010E025F0EE3032A0CE1022A0AE1012A7B
:1008C00008E1002AD8A402D0000110D0013202327F
:1008D0000332F8C003F10001FC510101031B03AF17
:1008E00002D0018E08D0019E06D00001006A016A84
:1008F000026A036A01010001B6EF07F0FCC003F1D0
:1009000001010051031B03AF06D0D894D890000119
:10091000FCBFD88044D0FCC003F1FFC004F100014B
:10092000FB510101045F09E003BF02D0000137D091
:10093000D850010AD86E000132D000C104F1000184
:10094000FC510101045F09E003BF02D0000127D080
:10095000D850010AD86E000122D001C104F1000173
:10096000FD510101045F09E003BF02D0000117D06F
:10097000D850010AD86E000112D002C104F1000162
:10098000FE510101045F0AE003BF02D0000107D05D
:10099000D850010AD86E000102D00101D8900001A0
:1009A000000C5C520DE059C05FF058C05EF0616B06
:1009B000606B59C063F058C062F0656B646B0CD01B
:1009C0005F6A5E6A59C061F058C060F0636B626B29
:1009D00059C065F058C064F06E825EC079FF5FC098
:1009E00078FF6E926E8260C077FF61C076FF6E9274
:1009F0006E8262C075FF63C074FF6E926E8264C0C7
:100A000073FF65C072FF6E92000C8E0E006EF75180
:100A1000005EF8C002F0F9C001F0028E005209E059
:100A2000D890025202E1015204E002320132002E5B
:100A3000F7D7F8AF05D0011E021E012AD8B4022A4A
:100A4000000CFA51FE19800B0101046F0001FAAF8E
:100A50000BD0F71FF81FF91FFA1FF72BD8B4F82B8C
:100A6000D8B4F92BD8B4FA2BFEAF0BD0FB1FFC1F68
:100A7000FD1FFE1FFB2BD8B4FC2BD8B4FD2BD8B424
:100A8000FE2B006A016A026A036AFF6B0101006BB8
:100A9000016B026B0001FE51FD11FC11FB1145E0E1
:100AA000200E0101036FD8900001F737F837F937AE
:100AB000FA37FF3701010037013702370001FE51D5
:100AC0000101025D0EE10001FD510101015D09E13D
:100AD0000001FC510101005D04E10001FB51FF5DDB
:100AE00001011DE30001FB51FF5FFC51D8A0FC3D5B
:100AF00001D003D00101005F0001FD51D8A0FD3DF0
:100B000001D003D00101015F0001FE51D8A0FE3DDC
:100B100001D003D00101025F0001D880010100363D
:100B2000013602360336032FBED7010104AF0BD0C6
:100B3000001E011E021E031E002AD8B4012AD8B4CA
:100B4000022AD8B4032AEA6AFF0EE96E0001B1EF67
:100B50000EF0F751B608F76F036AF8C0FBF0F88F94
:100B6000D890F833F933FA330332023201320032CB
:100B7000F72FF6D7FBAF0BD0001E011E021E031E7F
:100B8000002AD8B4012AD8B4022AD8B4032A8FEF95
:100B90000FF0F86AD09E0D8EEA6AE96A948A94880A
:100BA000A20EC86E360EC66EB990C19CC19E000ED4
:100BB000B86E196A1A6A030EEC6F1F0E926E340E2D
:100BC000946E000E956E969096929694D190CD6A02
:100BD000CA6E000ECB6E02EF01F0500E6F6E25EF65
:100BE00001F043EF01F09E0E246E570E236E226A31
:100BF0000A0E216E24C0D7FF23C0D6FF22C020F0EA
:100C000021C01FF0F28A9D86A384C00EF2120A0E44
:100C1000ED6FED5307E0265204E0266A96928D723E
:100C2000ED07F7D796928D92256A266A226A0A0EF8
:100C3000216E276A286A536A596A586AFF0E576EEE
:100C4000C46BC36BC26BC16BC86BC76BC66BC56B28
:100C5000F86BCB0EF76F010EF725016E000EF82131
:100C600001C0E9FFEA6E67CFEFFFF86BCB0EE96ECC
:100C7000F8C0EAFF66CFEFFFC8C0E0F0C7C0DFF002
:100C8000C6C0DEF0C5C0DDF0E0C0FAF0DFC0F9F0AC
:100C9000DEC0F8F0DDC0F7F0FE6BFD6B0B0EFC6FF5
:100CA000B80EFB6F49EC01F003C0E0F002C0DFF0CA
:100CB00001C0DEF000C0DDF0CB51DD27CC51DE23DA
:100CC000000EDF23E023D86BD76BD66BD56BE96BB7
:100CD000EA6BEB6B9A0E896F990E886F190E876F0E
:100CE0007C0E866F0A0E8D6FD70E8C6F230E8B6F66
:100CF000790E8A6F0A0E916FD70E906F230E8F6F49
:100D0000780E8E6F7D6B7C6B7B6B7A6B6D6B6C6B17
:100D10006B6B6A6B716B706B6F6B6E6B756B746BFF
:100D2000736B726BD46BD36BD26BD16B816B806B3B
:100D30007F6B7E6B856B846B836B826B696B686B7F
:100D4000160E676F880E666FA60EA16F9B0EA06FC2
:100D5000440E9F6F750E9E6F170EA56FB70EA46F92
:100D6000510EA36F720EA26F170EA96FB70EA86F68
:100D7000510EA76F710EA66F956B946B936B926B70
:100D8000996B986B976B966B9D6B9C6B9B6B9A6B3F
:100D9000AA6B010E5C6EE86BE76BE66B7F0EE56F8E
:100DA000E46BE36BE26BE16B21C0EEF0676A666AAD
:100DB000CA6BC96BC46BC36BC26BC16BDC6BDB6B87
:100DC000DA6BD96BAE6BAD6BAC6BAB6B2652D8B438
:100DD000C6EF0DF0266AF86BC90EF76F010EF72506
:100DE000016E000EF82101C0E9FFEA6E67CFEFFF48
:100DF000F86BC90EE96EF8C0EAFF66CFEFFFC4C01A
:100E0000DCF0C3C0DBF0C2C0DAF0C1C0D9F0DCC096
:100E1000FAF0DBC0F9F0DAC0F8F0D9C0F7F0FE6BF9
:100E2000FD6B0B0EFC6FB80EFB6F49EC01F003C0BD
:100E3000DCF002C0DBF001C0DAF000C0D9F0C9512B
:100E4000D927CA51DA23000EDB23DC23DCC0D0F023
:100E5000DBC0CFF0DAC0CEF0D9C0CDF0DD51CD5F30
:100E6000DE51CE5BDF51CF5BE051D05BD0C0FAF0FA
:100E7000CFC0F9F0CEC0F8F0CDC0F7F0FE6BFD6B3F
:100E8000FC6B0A0EFB6F49EC01F003C0D0F002C00E
:100E9000CFF001C0CEF000C0CDF0E4C0FAF0E3C066
:100EA000F9F0E2C0F8F0E1C0F7F0E8C0FEF0E7C00A
:100EB000FDF0E6C0FCF0E5C0FBF077EC01F003C00C
:100EC000E4F002C0E3F001C0E2F000C0E1F0D0C005
:100ED000FAF0CFC0F9F0CEC0F8F0CDC0F7F0FCECDE
:100EE00001F0D892E4C0FAF0E3C0F9F0E2C0F8F003
:100EF000E1C0F7F003C0FEF002C0FDF001C0FCF05D
:100F000000C0FBF027EC02F003C0E4F002C0E3F005
:100F100001C0E2F000C0E1F0D892E8C0FAF0E7C00A
:100F2000F9F0E6C0F8F0E5C0F7F0FE6BFD6BFC6B86
:100F30007F0EFB6F27EC02F003C0E8F002C0E7F081
:100F400001C0E6F000C0E5F0E4C0FAF0E3C0F9F05B
:100F5000E2C0F8F0E1C0F7F0E8C0FEF0E7C0FDF055
:100F6000E6C0FCF0E5C0FBF08EEF03F003C0E4F058
:100F700002C0E3F001C0E2F000C0E1F0CD5306E1B1
:100F8000CE5304E1CF5302E1D05302E096928D722A
:100F9000EB2D4FD1EA5306E03C0EAB27000EAC23FD
:100FA000AD23AE23DCAF03D0AEAF12D002D0AEBFC4
:100FB0001ED0DC51AE5D1BE30BE1DB51AD5D17E3F1
:100FC00007E1DA51AC5D13E303E1AB51D95D0FE208
:100FD000010EB76FD951AB5DB36FDA51AC59B46F35
:100FE000DB51AD59B56FDC51AE59B66F0DD0B76B53
:100FF000AB51D95DB36FAC51DA59B46FAD51DB5918
:10100000B56FAE51DC59B66FB6BF0AD0B653D8A48F
:1010100074D0B553D8A471D0B4514A08D8A06DD0BB
:10102000B26BB16BB06B190EAF6FB6BF09D0B653D0
:101030000DE1B5530BE1B45309E1B351310806E3B7
:10104000C06BBF6BBE6BBD6BEB6B56D0B6BF07D032
:10105000B6534AE1B55348E1B4514A0845E3B6C036
:10106000FAF0B5C0F9F0B4C0F8F0B3C0F7F0FCEC9A
:1010700001F003C0C0F002C0BFF001C0BEF000C06C
:10108000BDF0C0C0FAF0BFC0F9F0BEC0F8F0BDC0FE
:10109000F7F0FE6BFD6BFC6B7E0EFB6F77EC01F0E7
:1010A00003C0C0F002C0BFF001C0BEF000C0BDF080
:1010B000D892C0C0FAF0BFC0F9F0BEC0F8F0BDC011
:1010C000F7F0FE6BFD6B160EFC6F880EFB6F27ECC6
:1010D00002F003C0C0F002C0BFF001C0BEF000C00B
:1010E000BDF0020EEB6F08D0C06BBF6B160EBE6F6B
:1010F0008C0EBD6F020EEB6F6AD0B6BF07D0B65331
:1011000012E1B55310E1B45195080DE3C06BBF6B0C
:10111000160EBE6F8C0EBD6FB26BB16B250EB06F2D
:10112000800EAF6F52D0B6BF09D0B65313E1B551A0
:10113000010810E303E1B4512B080CE3C06BBF6B53
:10114000160EBE6F8D0EBD6FB26BB16B4B0EB06FD6
:10115000AF6B3BD0B6BF09D0B65313E1B55102080F
:1011600010E303E1B45157080CE3C06BBF6B160EDC
:10117000BE6F8E0EBD6FB26BB16B960EB06FAF6B64
:1011800024D0B6BF09D0B65314E1B551040811E319
:1011900003E1B451AF080DE3C06BBF6B160EBE6F19
:1011A0008F0EBD6FB26B010EB16F2C0EB06FAF6BB7
:1011B0000CD0C06BBF6B160EBE6F8F0EBD6FB26BC7
:1011C000010EB16F2C0EB06FAF6B020EEB6FEA53D6
:1011D00015E0FE6BFD6B160EFC6F8B0EFB6FC0C037
:1011E00002F1BFC001F1BEC000F1BDC0FFF07EEC56
:1011F00004F002E3E96B02D0010EE96FB75309E096
:10120000C0C06DF0BFC06CF0BEC06BF0BDC06AF076
:1012100009D0BDC06AF0BE51800A6B6FBFC06CF0D0
:10122000C0C06DF0B7C0B8F021C0EEF0020E576E2E
:1012300070D0EB510208D8A46CD0B72D35D0AF5187
:10124000D925F76FB051DA21F86FB151DB21F96F71
:10125000B251DC21FA6FAEAF03D0FAAF12D002D098
:10126000FABF1DD0AE51FA5D1AE30BE1AD51F95D45
:1012700016E307E1AC51F85D12E303E1F751AB5D12
:101280000EE26D6B6C6B6B6B6A6BE95303E0010EE6
:10129000EB6F02D0030EEB6F020E576E04D0EE53CD
:1012A00002E1010EEB6F34D0AF51AB25006EB051AF
:1012B000AC21016EB151AD21026EB251AE21036E6F
:1012C000DCAF03D003AE12D002D003BE1DD0DC5180
:1012D000035C1AE30BE1DB51025C16E307E1DA5130
:1012E000015C12E303E10050D95D0EE26D6B6C6BA3
:1012F0006B6B6A6BE95303E0010EEB6F02D0030ED8
:10130000EB6F020E576E04D0EE5302E1010EEB6F4D
:10131000EE0757501DE0010A22E0050A28E0010A05
:1013200030E0020AD8B46DD0050AD8B474D0010AEE
:10133000D8B47FD10B0AD8B485EF0DF0010AD8B428
:101340009DEF0DF0F60AD8B4B5EF0DF0B6EF0DF045
:101350006F6AFF0E576E596A586AB6EF0DF0500E5D
:101360006F6EFF0E576E596A586AB6EF0DF0535202
:1013700004E1010E536E596A586A050E576EB6EFB6
:101380000DF05C50565C29E15450585CF76F555095
:101390005958F86FE8BE0AD0F85303E1F7510A082C
:1013A00005E2140E585E000E595A16D05850545C7F
:1013B000F76F59505558F86FE8BE0AD0F85303E15B
:1013C000F7510A0805E2140E5826000E592204D0DF
:1013D00055C059F054C058F010D059BE0AD05952D7
:1013E00003E158500A0805E2140E585E000E595ADF
:1013F00004D0596A586A56C05CF0D1EC04F0B6EFDC
:101400000DF0856B846B836B826B9D6B9C6B9B6B10
:101410009A6B030E576E6DC0F6F06CC0F5F06BC0A2
:10142000F4F06AC0F3F0E9531BE0D892F6C0FAF08A
:10143000F5C0F9F0F4C0F8F0F3C0F7F069C0FEF0C1
:1014400068C0FDF067C0FCF066C0FBF027EC02F05E
:1014500003C0F6F002C0F5F001C0F4F000C0F3F0F4
:10146000F6C0FEF0F5C0FDF0F4C0FCF0F3C0FBF0F8
:101470000101026B016B006B0001FF6B7EEC04F05D
:1014800008E1AA5303E0090E576E02D0080E576E0A
:10149000B6D0FE6B600EFD6F9F0EFC6F8C0EFB6F67
:1014A0006DC002F16CC001F16BC000F16AC0FFF0C9
:1014B0007EEC04F016E36DC0FEF06CC0FDF06BC076
:1014C000FCF06AC0FBF00101026B600E016F1F0EA1
:1014D000006F8C0E0001FF6F7EEC04F002E3AA6B3C
:1014E00002D0010EAA6FCD5307E1CE5305E1CF53D1
:1014F00003E1D053D8B481D071C0FEF070C0FDF0CC
:101500006FC0FCF06EC0FBF06DC002F16CC001F169
:101510006BC000F16AC0FFF07EEC04F037E3D882C4
:101520006DC0FAF06CC0F9F06BC0F8F06AC0F7F06B
:1015300071C0FEF070C0FDF06FC0FCF06EC0FBF03B
:1015400027EC02F000C0F7F001C0F8F002C0F9F09B
:1015500003C0FAF0FE6BFD6B160EFC6F8B0EFB6F7B
:1015600003C002F102C001F101C000F100C0FFF0B0
:101570007EEC04F008E3AA5303E0090E576E02D094
:10158000080E576E02D0030E576E36D0D88271C047
:10159000FAF070C0F9F06FC0F8F06EC0F7F06DC0EF
:1015A000FEF06CC0FDF06BC0FCF06AC0FBF027ECF5
:1015B00002F000C0F7F001C0F8F002C0F9F003C07B
:1015C000FAF0FE6BFD6B160EFC6F8B0EFB6F03C00B
:1015D00002F102C001F101C000F100C0FFF07EEC99
:1015E00004F008E3AA5303E0090E576E02D0080E78
:1015F000576E02D0030E576E02D0030E576E75C0A1
:1016000071F074C070F073C06FF072C06EF0F6C00D
:1016100075F0F5C074F0F4C073F0F3C072F0E46BD1
:10162000E36BE26BE16BE86BE76BE66B7F0EE56FFC
:101630009DD2AA53D8B4DAD0D0C0FAF0CFC0F9F016
:10164000CEC0F8F0CDC0F7F0FCEC01F003C095F08F
:1016500002C094F001C093F000C092F0D88295C00F
:10166000FAF094C0F9F093C0F8F092C0F7F075C0AA
:10167000FEF074C0FDF073C0FCF072C0FBF027EC0C
:1016800002F003C095F002C094F001C093F000C0D6
:1016900092F0D151CD5D006ED251CE59016ED35131
:1016A000CF59026ED451D059036EFA6F02C0F9F0CF
:1016B00001C0F8F000C0F7F0FCEC01F003C099F0B5
:1016C00002C098F001C097F000C096F0D8929DC07B
:1016D000FAF09CC0F9F09BC0F8F09AC0F7F095C002
:1016E000FEF094C0FDF093C0FCF092C0FBF027EC3C
:1016F00002F003C079F002C078F001C077F000C0BA
:1017000076F079C0FAF078C0F9F077C0F8F076C0DA
:10171000F7F0A5C0FEF0A4C0FDF0A3C0FCF0A2C08D
:10172000FBF077EC01F003C079F002C078F001C063
:1017300077F000C076F0A1C0FAF0A0C0F9F09FC029
:10174000F8F09EC0F7F095C0FEF094C0FDF093C095
:10175000FCF092C0FBF077EC01F0D89279C0FAF07F
:1017600078C0F9F077C0F8F076C0F7F003C0FEF06B
:1017700002C0FDF001C0FCF000C0FBF027EC02F05D
:1017800003C079F002C078F001C077F000C076F0B5
:10179000A9C0FAF0A8C0F9F0A7C0F8F0A6C0F7F009
:1017A00099C0FEF098C0FDF097C0FCF096C0FBF029
:1017B00077EC01F0D89279C0FAF078C0F9F077C0F0
:1017C000F8F076C0F7F003C0FEF002C0FDF001C0F3
:1017D000FCF000C0FBF027EC02F003C079F002C07F
:1017E00078F001C077F000C076F0D9D0D0C0FAF020
:1017F000CFC0F9F0CEC0F8F0CDC0F7F0FCEC01F0AE
:1018000003C07DF002C07CF001C07BF000C07AF024
:10181000D8827DC0FAF07CC0F9F07BC0F8F07AC0C5
:10182000F7F075C0FEF074C0FDF073C0FCF072C03C
:10183000FBF027EC02F003C07DF002C07CF001C099
:101840007BF000C07AF0D151CD5D006ED251CE59FF
:10185000016ED351CF59026ED451D059036EFA6F35
:1018600002C0F9F001C0F8F000C0F7F0FCEC01F0A4
:1018700003C081F002C080F001C07FF000C07EF0A4
:10188000D89285C0FAF084C0F9F083C0F8F082C025
:10189000F7F07DC0FEF07CC0FDF07BC0FCF07AC0AC
:1018A000FBF027EC02F003C079F002C078F001C031
:1018B00077F000C076F079C0FAF078C0F9F077C020
:1018C000F8F076C0F7F08DC0FEF08CC0FDF08BC054
:1018D000FCF08AC0FBF077EC01F003C079F002C0A5
:1018E00078F001C077F000C076F089C0FAF088C0C7
:1018F000F9F087C0F8F086C0F7F07DC0FEF07CC03C
:10190000FDF07BC0FCF07AC0FBF077EC01F0D892E0
:1019100079C0FAF078C0F9F077C0F8F076C0F7F047
:1019200003C0FEF002C0FDF001C0FCF000C0FBF0FF
:1019300027EC02F003C079F002C078F001C077F024
:1019400000C076F091C0FAF090C0F9F08FC0F8F0C6
:101950008EC0F7F081C0FEF080C0FDF07FC0FCF0CB
:101960007EC0FBF077EC01F0D89279C0FAF078C035
:10197000F9F077C0F8F076C0F7F003C0FEF002C0CF
:10198000FDF001C0FCF000C0FBF027EC02F003C04A
:1019900079F002C078F001C077F000C076F075C031
:1019A000FEF074C0FDF073C0FCF072C0FBF00101EA
:1019B000026B016B006B0001FF6B7EEC04F00CE12D
:1019C000CD530AE1CE5308E1CF5306E1D05304E1F1
:1019D000796B786B776B766B79C0FEF078C0FDF031
:1019E00077C0FCF076C0FBF00101026B016B006B6D
:1019F0000001FF6B7EEC04F018E376C000F0775135
:101A0000800A016E78C002F079C003F079C0FAF064
:101A100078C0F9F0F86F76C0F7F005EC05F002C079
:101A20005BF001C05AF05D6A10D079C0FAF078C05E
:101A3000F9F077C0F8F076C0F7F005EC05F002C0D9
:101A40005BF001C05AF0010E5D6E5BBE0DD05B50C5
:101A500006080AE2FF0A03E15A50080805E2070EE9
:101A60005B6E080E5A6E39D0AA531CE0D8929DC006
:101A7000FAF09CC0F9F09BC0F8F09AC0F7F095C05E
:101A8000FEF094C0FDF093C0FCF092C0FBF027EC98
:101A900002F003C09DF002C09CF001C09BF000C0AA
:101AA0009AF01BD0D89285C0FAF084C0F9F083C0B8
:101AB000F8F082C0F7F07DC0FEF07CC0FDF07BC086
:101AC000FCF07AC0FBF027EC02F003C085F002C006
:101AD00084F001C083F000C082F05D505C5C0CE0DB
:101AE000CD5306E1CE5304E1CF5302E1D05304E0DD
:101AF000596A320E586E06D05BC059F05AC058F081
:101B00005DC05CF0D1EC04F031D0596A586ACD5315
:101B100011E1CE530FE1CF530DE1D0530BE1856BB3
:101B2000846B836B826B030E576EEB51030802E1EB
:101B3000010EEB6FD1EC04F019D0596A586ACD53FD
:101B400011E1CE530FE1CF530DE1D0530BE19D6B6B
:101B50009C6B9B6B9A6B030E576EEB51030802E173
:101B6000010EEB6FD1EC04F001D000D0DCC0E0F04E
:101B7000DBC0DFF0DAC0DEF0D9C0DDF0D0C0D4F0D9
:101B8000CFC0D3F0CEC0D2F0CDC0D1F02752D8B460
:101B9000B7D1276A2F500708D8A0B2D12F50040D13
:101BA000F350036A310F016E000E032201C0F7F0FB
:101BB00003C0F8F0FA6B2B0EE96EFAC0EAFFEFCF24
:101BC00000F0ECCF01F0ECCF02F0ECCF03F0F8C066
:101BD000EAFFF7C0E9FF00C0EFFF01C0ECFF02C061
:101BE000ECFF03C0ECFF2F5203E12BC057F088D16C
:101BF0002F2C32D0F86B2B0EE96EF8C0EAFFEFCF36
:101C000000F0ECCF01F0ECCF02F0ECCF03F003C01A
:101C1000F2F002C0F1F001C0F0F000C0EFF0F2BF4E
:101C200001D012D0000ED880EF55006E000EF05596
:101C3000016E000EF155000EF25501C055F000C0C6
:101C400054F0010E566E05D0F0C055F0EFC054F0C0
:101C5000566A040E576E54D12F50030841E1F86BB9
:101C60002B0EE96EF8C0EAFFEFCF00F0ECCF01F0E9
:101C7000ECCF02F0ECCF03F003C0F2F002C0F1F0C1
:101C800001C0F0F000C0EFF0EF5309E1F05307E1BD
:101C9000F15305E1F25303E1E96BEA6B03D0010E66
:101CA000E96FEA6FF2C0FAF0F1C0F9F0F0C0F8F0B5
:101CB000EFC0F7F0FCEC01F003C069F002C068F07F
:101CC00001C067F000C066F0E46BE36BE26BE16BB0
:101CD000E86BE76BE66B7F0EE56F020E576E10D177
:101CE0002F500408D8A49CD0F86B2B0EE96EF8C0D6
:101CF000EAFFEFCF00F0ECCF01F0ECCF02F0ECCF39
:101D000003F003C0F2F002C0F1F001C0F0F000C037
:101D1000EFF0F2BF01D00DD0B80EEF5DC16F0B0E2A
:101D2000F059C26F000EF159C36F000EF259C46F23
:101D300008D0F2C0C4F0F1C0C3F0F0C0C2F0EFC0F0
:101D4000C1F0C4C0FAF0C3C0F9F0C2C0F8F0C1C01D
:101D5000F7F0FE6BFD6B0B0EFC6FB80EFB6F21EF07
:101D600005F003C0C4F002C0C3F001C0C2F000C05F
:101D7000C1F0C4C0DCF0C3C0DBF0C2C0DAF0C1C047
:101D8000D9F0DCC0FAF0DBC0F9F0DAC0F8F0D9C065
:101D9000F7F0FE6BFD6B0B0EFC6FB80EFB6F49ECA2
:101DA00001F003C0DCF002C0DBF001C0DAF000C0DB
:101DB000D9F0D951EF5DD96FDA51F059DA6FDB51B3
:101DC000F159DB6FDC51F259DC6FDAC0CAF0D9C0CF
:101DD000C9F0F86BC90EE96EF8C0EAFFEFCF66FFF5
:101DE000F86BC90EF76F010EF725016E000EF82192
:101DF00001C0E9FFEA6EEFCF67FFF2C0DCF0F1C08F
:101E0000DBF0F0C0DAF0EFC0D9F0DCC0E0F0DBC00E
:101E1000DFF0DAC0DEF0D9C0DDF0080E576E70D00A
:101E20002F50060833E1F86B2B0EE96EF8C0EAFF7D
:101E3000EFCF00F0ECCF01F0ECCF02F0ECCF03F0ED
:101E400003C0F2F002C0F1F001C0F0F000C0EFF00A
:101E5000020E576EF2C0FAF0F1C0F9F0F0C0F8F0DF
:101E6000EFC0F7F0FCEC01F003C06DF002C06CF0C5
:101E700001C06BF000C06AF0E46BE36BE26BE16BF6
:101E8000E86BE76BE66B7F0EE56F3AD02F500708E3
:101E900037E1F86B2B0EE96EF8C0EAFFEFCF00F0E8
:101EA000ECCF01F0ECCF02F0ECCF03F003C0F2F086
:101EB00002C0F1F001C0F0F000C0EFF0DCC0AEF005
:101EC000DBC0ADF0DAC0ACF0D9C0ABF0EF51AB275E
:101ED000F051AC23F151AD23F251AE23EF5308E1A1
:101EE000F05306E1F15304E1F25302E1EB6B06D04B
:101EF000010EEB6FB26BB16BB06BAF6B96928D92C4
:101F00002852D8B47AD02F2C13D0E4C0FAF0E3C012
:101F1000F9F0E2C0F8F0E1C0F7F0A9EF05F003C076
:101F200038F002C037F001C036F000C035F04BD0B9
:101F30002F5002080BE1026A036A03C03CF002C0A2
:101F40003BF0CAC03AF0C9C039F03DD02F50030869
:101F500009E1C4C040F0C3C03FF0C2C03EF0C1C000
:101F60003DF031D02F50040809E1DCC044F0DBC063
:101F700043F0DAC042F0D9C041F025D02F50050817
:101F800009E1D0C048F0CFC047F0CEC046F0CDC088
:101F900045F019D02F5006080BE14C6A4B6A59C026
:101FA0004AF058C049F04AAE02D04B064C060BD05E
:101FB0002F50070808E1B6C050F0B5C04FF0B4C0CC
:101FC0004EF0B3C04DF02F50040DF350036A310FA3
:101FD000516E000E0320526E51C0E9FF52C0EAFF5D
:101FE000EFCFF7F0186AF2BE188EF29EF7C008F134
:101FF00072EC00F018BEF28E286AE6EF06F00300DD
:020000040030CA
:0E00000000C2092E3C9581000FC00FE00F409A
:00000001FF
;PIC18F4431
